:020000040800F2
:1000000098040020AD0100083F130008ED0F000820
:100010003D130008B9020008211500080000000087
:10002000000000000000000000000000451400086F
:10003000BB0200080000000061130008471400081C
:10004000C7010008C7010008C7010008C701000870
:10005000C7010008C7010008C7010008C701000860
:10006000C7010008C7010008C7010008C701000850
:10007000C7010008C7010008C7010008C701000840
:10008000C7010008C7010008C70100080000000000
:10009000000000000000000000000000C701000890
:1000A000C7010008C7010008C7010008C701000810
:1000B000C7010008C7010008C7010008C701000800
:1000C000C7010008C7010008C7010008C7010008F0
:1000D000C7010008C7010008C701000800000000B0
:1000E000C7010008C7010008C701000800000000A0
:1000F000000000000000000000000000C701000830
:1001000000000000C7010008C7010008C70100087F
:1001100000000000000000000000000000000000DF
:10012000C7010008C7010008C7010008C70100088F
:10013000C7010008000000000000000000000000EF
:10014000000000000000000000000000C7010008DF
:10015000C7010008C7010008C7010008C70100085F
:10016000C7010008C70100080000000000000000EF
:10017000000000000000000000000000000000007F
:1001800000000000C701000800000000000000009F
:10019000C7010008C7010008DFF80CD000F07AF8AA
:1001A0000048004741150008980400200648804791
:1001B00006480047FEE7FEE7FEE7FEE7FEE7FEE74C
:1001C000FEE7FEE7FEE7FEE7CD1400089901000810
:1001D0002DE9F05F0546002092469B46884606467C
:1001E000814640241BE0284641464746224600F00F
:1001F00041F853465A46C01A914110D31146184649
:10020000224600F028F82D1A67EB01084F462246D7
:100210000120002100F01FF817EB00094E41201EBD
:10022000A4F10104DFDC484631462A464346BDE8D6
:10023000F09FD2B201E000F8012B491EFBD27047BB
:100240000022F6E710B513460A4604461946FFF7A2
:10025000F0FF204610BD202A04DB203A00FA02F10C
:10026000002070479140C2F1200320FA03F31943A4
:1002700090407047202A04DB203A21FA02F0002146
:10028000704721FA02F3D040C2F1200291400843A6
:1002900019467047064C074D06E0E06840F0010340
:1002A00094E8070098471034AC42F6D3FFF778FF84
:1002B000F415000814160008FEE7704770B50446F0
:1002C00000F0D8F80546601C02D0044800780444C9
:1002D00000F0D0F8401BA042FAD370BD18000020F7
:1002E0002DE9F84FDFF860B100224FF001084FF020
:1002F000030A4FF00F090BF1040E00BF0B6808FA58
:1003000002F42340A3426ED14D68022D01D0122D7C
:100310000ED1D50800EB850CDCF820505607F70EFF
:1003200009FA07F6B5430E69BE402E43CCF82060AB
:10033000066855000F790AFA05FC07F0030726EA5C
:100340000C06AF40374307604E68012E05D0022EE1
:1003500003D0112E01D0122E0ED18668CF6826EA66
:100360000C06AF40374387604668A6430C79C4F358
:100370000014944034434460C6688C6826EA0C0636
:10038000AC403443C4604C68E40056D52F4C25681B
:1003900045F480452560246822F0030504F4804478
:1003A00000942B4C2E19D6F8084895072F0F09FA00
:1003B00007F5AC43274DA84201D1002515E0264D95
:1003C000A84201D1012510E0244DA84201D1022507
:1003D0000BE0234DA84201D1032506E0214DA842A0
:1003E00002D1042501E028E00725BD402543C6F8D9
:1003F0000858DBF800405D464E689C43F60300D584
:100400001C432C60DEF8004075464E689C43B603E2
:1004100000D51C432C600C4D08352C684E689C435D
:10042000F60200D51C432C60074D0C352C684E6835
:100430009C43B60200D51C432C60521C102AFFF4CA
:100440005DAFBDE8F88F0000003C01404438024039
:100450000030014000000240000402400008024059
:10046000000C0240001002400AB18161704709048B
:10047000FBE700000148806870470000180000207A
:10048000024881680278114481607047180000209A
:100490000B4810B5016841F400710160016841F436
:1004A00080610160016841F480710160032000F007
:1004B00063F8002000F006F800F024F8002010BDDA
:1004C000003C024070B50D4D04464FF47A71287817
:1004D000B1FBF0F00A490968B1FBF0F000F072FDE1
:1004E00048B9102C07D200222146501E00F024F8F3
:1004F00000206C6070BD012070BD0000180000205D
:10050000240000200B4882B0016841F48041016062
:10051000006800F4804000900648001F016841F028
:1005200080510160006800F080500090072002B008
:1005300000F022B844380240F0B40E4B1B680C4661
:10054000C3F30223C3F10705042D00D90425191DA7
:10055000072901D2002300E0DB1E012606FA05F17F
:10056000491E214099409E40761E16403143F0BC02
:1005700000F0E6BE0CED00E0064900F00702086856
:100580004FF6FF03184040EA0220034A1043086078
:10059000704700000CED00E00000FA052DE9F0477F
:1005A0000E46050065D0DFF81481D8F80000F7B2D8
:1005B00000F00F00B04207D288F80070D8F80000B1
:1005C00000F00F00B04254D128683D4C810712D58D
:1005D000400703D5206840F4E050206028780007E9
:1005E00003D5206840F4604020602068A96820F0AE
:1005F000F000084320602878C0072DD03049686893
:100600000839012812D0022813D0032811D0096814
:10061000890700292DDA216821F0030101432160B7
:10062000FFF728FF814641F2883A0EE00968890306
:10063000EFE709688901ECE7FFF71CFFA0EB090170
:10064000514502D90320BDE8F0872068696800F0B1
:100650000C00B0EB810FEFD1D8F80010404601F04C
:100660000F01B14207D90770006800F00F00B042D7
:1006700001D00120E7E72878400705D52068E96820
:1006800020F4E050084320602878000706D5206851
:10069000296920F4604040EAC100206000F016F8AB
:1006A0002168084AC1F30311515CC840064908603B
:1006B0000020FFF707FF0020C5E70000003C0240D4
:1006C00008380240E415000824000020154810B541
:1006D000006810F00C02144813D04110042A0FD007
:1006E000082A0ED10F4C241F2268236802F03F0213
:1006F0005B0207D52068C0F38810A0FB010106E06B
:10070000084610BD2168C1F38811A1FB0001002338
:10071000FFF75EFD2168C1F30141491C4900B0FBB0
:10072000F1F010BD083802400024F4002DE9F84F24
:10073000050076D02878DFF8F8B2BE4CC00749D063
:10074000DBF800105846C1F38101012908D0006888
:10075000C0F3810002280AD1201D0068400206D59E
:100760002068800336D568680028E2D032E06868E7
:10077000B0F5803F10D0B0F5A02F206810D020F445
:1007800080302060206820F4802020606868A0B15C
:10079000FFF770FE06460CE0206840F48030F4E776
:1007A00040F480202060F7E7FFF764FE801B642898
:1007B00073D820688003F7D50CE0FFF75BFE064690
:1007C00005E000BFFFF756FE801B6428F0D82068C4
:1007D0008003F7D42878DFF8608280074FF00009A3
:1007E0003ED5DBF80010584611F00C0F09D0006818
:1007F000C0F3810002280BD18D48001F0068400221
:1008000006D42068800715D5E868012809D111E0D1
:10081000E868B8B10120C8F80000FFF72BFE0646D3
:1008200005E002E1FFF726FE801B0228C0D8206801
:100830008007F7D52068296920F0F80040EAC10058
:1008400020600DE0C8F80090FFF714FE064604E0B3
:10085000FFF710FE801B02281FD820688007F7D4FE
:100860002878000722D5724E744869696C3671B1D8
:1008700001210160FFF7FEFD074604E0FFF7FAFDE6
:10088000C01B022809D830688007F7D50EE0C0F8F1
:100890000090FFF7EFFD074605E083E0FFF7EAFD74
:1008A000C01B02287ED830688007F7D4287840071C
:1008B00068D5DFF87CA100270AF1380ADAF80000D1
:1008C000C0000BD4DAF8001041F08051CAF80010D3
:1008D000DAF80000012700F080500090584E306890
:1008E000C00510D4306840F480703060FFF7C2FD5E
:1008F000009005E0FFF7BEFD0099401A022851D88C
:100900003068C005F6D54A4EA868683601280FD071
:100910000528306810D020F001003060306820F0E9
:1009200004003060A868B8B1FFF7A4FD00900FE0A4
:10093000306840F00100F4E740F004003060F7E771
:10094000FFF798FD0099411A41F28830814264D83E
:1009500030688007F4D50EE0FFF78CFD009007E0CB
:10096000FFF788FD0099411A41F28830814254D83E
:1009700030688007F4D42FB1DAF8001021F08051EC
:10098000CAF80010A869C0B3DBF80010C1F38101F8
:1009900002294AD00228484607D0C8F86000FFF76D
:1009A00069FD00E039E005463AE04746C8F86000D6
:1009B000FFF760FD064604E0FFF75CFD801B0228A0
:1009C0002BD820688001F7D4D5E907010843A96A2C
:1009D0001C4A490802EB01416A6A41EA8211084354
:1009E00095F82C1040EA01611148001F01600120B8
:1009F0003866FFF73FFD054605E014E0FFF73AFDD6
:100A0000401B022809D820688001F7D50BE000BF01
:100A1000FFF730FD401B022802D90320BDE8F88F04
:100A200020688001F4D40020F8E70120F6E70000F8
:100A3000083802400038024000004742800E47421A
:100A4000007000400000FFFF70B5040005D00025D5
:100A5000A56294F8510010B106E0012070BD84F841
:100A60005050204600F030F8022084F851002068F1
:100A7000016821F040010160D4E901010843D4E993
:100A800003121143084361690843218B01F400718B
:100A90000843E1690843216A0843A16A08432168C1
:100AA0000860A069042101EA1040616A08432168D6
:100AB00048602068C16921F40061C1616565012059
:100AC00084F85100002070BD10B586B00446142192
:100AD0006846FFF7B5FB14492068884221D11348C6
:100AE0000021026842F480420260006800F4804005
:100AF00005900E481038026842F002020260006859
:100B000000F0020005904FF4604000900220CDE913
:100B10000101032003900520049069460448FFF773
:100B2000DFFB06B010BD0000003800404038024036
:100B3000000402402DE9F84F04464068002698461C
:100B400017460D464FF00409B0F5827F01D1A06829
:100B500090B194F85000012819D04FF0010B84F89F
:100B600050B0FFF787FC009094F851004FF0000A56
:100B700001280ED002267FE084F8519013460A46E1
:100B80002046CDF8008000F031F9BDE8F88F022052
:100B9000FBE7002D6FD0002F6DD084F85190C4F882
:100BA00054A0A563A787E787C4F830A0A4F834A0B1
:100BB000A4F836A0C4F840A0C4F844A0A0684FF43C
:100BC0000047B84204D12068016821F480410160E7
:100BD00020680168490603D4016841F040010160C2
:100BE000E068B8B133E020688168C90706D0007BAF
:100BF00005F8010BE08F401EE0870BE0B8F1000F15
:100C000023D0B8F1FF3F05D0FFF734FC0099411A1B
:100C100041451AD2E08F0028E5D11BE020688168A9
:100C2000C90706D0C06825F8020BE08F401EE08798
:100C30000DE0B8F1000F08D0B8F1FF3F07D0FFF783
:100C400019FC0099411A414501D3032614E0E08FB5
:100C50000028E3D16068B0F5827F0AD1A068B8426D
:100C600002D0B0F5806F04D12068016821F0400106
:100C70000160606D00B1012684F851B084F850A085
:100C8000304682E72DE9F84F044690F850000026E0
:100C9000994617460D4601280DD04FF0010B84F8F8
:100CA00050B0FFF7E7FB804694F85100B2460128A8
:100CB00004D0022694E00220BDE8F88F002D7BD0FE
:100CC000002F79D0032084F85100C4F854A0256384
:100CD000A786E786C4F838A0A4F83CA0A4F83EA0F4
:100CE000C4F844A0C4F840A0A068B0F5004F04D1F7
:100CF0002068016841F4804101602068016849066C
:100D000003D4016841F040010160E068B0F5006F74
:100D1000606804D030B3E08E012823D03EE010B1EB
:100D2000E08E01281AD135F8021B206805E0206802
:100D30008168890706D535F8021BC160E08E401E28
:100D4000E0860BE0B9F1000F34D0B9F1FF3F05D0D8
:100D5000FFF790FBA0EB080149452BD2E08E00285D
:100D6000E5D11EE0216815F8010B087306E0206844
:100D70008168890706D515F8011B0173E08E401EB6
:100D8000E0860BE0B9F1000F14D0B9F1FF3F05D0B8
:100D9000FFF770FBA0EB080149450BD2E08E00285D
:100DA000E5D14B46012202212046CDF8008000F01B
:100DB000E8FA10B1032613E011E042464946204606
:100DC00000F0CFFA18B101262020606508E0A06885
:100DD00018B92068C16880680090606D00B1012674
:100DE00084F851B084F850A0304665E72DE9F84FFB
:100DF000044690F8500000260A9F9A4693460D46F6
:100E00004FF0010801280ED0012084F85000FFF7B0
:100E100031FB814694F85100616801280CD0B1F58E
:100E2000827F07D102E00220BDE8F88FA16809B9EE
:100E3000042801D00226BDE055B1BBF1000F07D058
:100E4000BAF1000F04D094F85100012802D004E058
:100E50000126AFE0052084F8510000206065C4F849
:100E600038B0A4F83EA0A4F83CA02563A4F836A0AE
:100E7000A4F834A02064606420680168490603D4A3
:100E8000016841F040010160E068B0F5006F606802
:100E900004D0E8B3E08E01283BD06AE010B1E08EC8
:100EA00001282ED1216835F8020BC860E08E401E63
:100EB000E08626E0B8F1000F0DD0E08E58B1206832
:100EC0008168890707D535F8021BC160E08E401E96
:100ED000E0864FF00008E08F58B120688168C907AC
:100EE00007D0C0682BF8020BE08F401EE0874FF060
:100EF0000108781C05D0FFF7BDFAA0EB0900B84245
:100F000046D2E08E0028D5D1E08F0028D2D136E03D
:100F1000FFE7216815F8010B0873E08E401EE0869C
:100F200027E000BFB8F1000F0DD0E08E58B1206867
:100F30008168890707D515F8011B0173E08E401EF3
:100F4000E0864FF00008E08F58B120688168C9073B
:100F500007D0C0680BF8010BE08F401EE0874FF010
:100F60000108781C05D0FFF785FAA0EB0900B8420C
:100F70000ED2E08E0028D5D1E08F0028D2D13B469A
:100F8000012202212046CDF8009000F0FAF908B1C4
:100F900003260FE04A463946204600F0E2F918B130
:100FA00001262020606505E0A06818B92068C168A6
:100FB00080680090012084F85100002084F85000DF
:100FC000304631E710B5401EB0F1807F01D30120DB
:100FD00010BD4FF0E02460610F21601700F0B0F900
:100FE0000020A06107202061002010BDFEE7000066
:100FF00010B500F0FDF8BDE8104000224FF480511C
:101000000148FFF731BA00000004024070B51446F1
:101010000D460646304A15213B2000F0BEFA2E4B05
:101020002E49DFED2F0A188840BA3080588840BA20
:101030007080988840BAB080188940BA208058895A
:1010400040BA6080988940BAA0800C78B3F90E202D
:10105000803C00EE104AB3F91000B3F91230B8EE3C
:10106000C01AB7EE000AF0EE401A41EE201A01EE67
:10107000102AB8EEC11A21EE811AF0EE401ABDEE28
:10108000C11A11EE102A2A804A78803A01EE102AFD
:10109000B8EEC11A41EE201A01EE100AB8EEC11ADC
:1010A00021EE811ABDEEC11A11EE100A688088780F
:1010B000803801EE100AB8EEC11A01EE200A00EEE7
:1010C000903AF8EEE00A20EE200ABDEEC00A10EEDB
:1010D000100AA88070BD0000280000200000002039
:1010E0000000803B10B501216B2000F071FA202137
:1010F0006A2000F06DFA0D21242000F069FA002129
:101100000A2000F050FA80216B2000F061FA0A20DA
:10111000FFF7D4F801210B2000F045FA01216B20E4
:1011200000F056FA304A0121752000F036FA2E4CB4
:101130002078712801D0732827D100216C2000F07D
:1011400047FA18211C2000F043FA00211B2000F070
:101150003FFA01211D2000F03BFA01211A2000F086
:1011600037FA0021192000F033FA20216A2000F01C
:101170002FFA0D21242000F02BFA1B4A0121002018
:1011800000F0F0F92078482801D0012010BD00219E
:101190000A2000F008FA6420FFF790F80F210A20D7
:1011A00000F001FA6420FFF789F8104A03211020AB
:1011B00000F0D8F900210A2000F0F5F96420FFF7CB
:1011C0007DF816210A2000F0EEF96420FFF776F88A
:1011D00001216B2000F0FCF9034A0721032000F0F5
:1011E000C1F9002010BD00002800002000000020F0
:1011F00070470000F8B516460C460546FFF7F8FEA6
:1012000044F080008DF800004FF0FF3423460122A7
:1012100069460748FFF736FD23463246294604480B
:10122000FFF788FC012211030248FFF71DF9F8BD02
:10123000400000200004024070B514460E460546EA
:10124000FFF7D6FE304600F0E7F805E0287800F01A
:10125000E3F8641EA4B26D1C002CF7D1BDE8704009
:10126000012211030148FFF7FFB80000000402400B
:101270002DE9F04186B014216846FEF7E1FF1E48D3
:101280000024016841F080010160016801F08001E3
:101290000591016841F001010160016801F001015F
:1012A0000591016841F0020101600068134F00F0F0
:1012B00002000590002220213846FFF7D5F8DFF81C
:1012C0004080BE14002231464046FFF7CDF8202072
:1012D00000900125CDE90154694638460394FEF794
:1012E000FFFF0096CDE90154694640460394FEF79E
:1012F000F7FF06B0BDE8F081303802400000024040
:10130000000402400C480B494FF4007201604FF496
:101310008271416000218160C1600161C0E90512F4
:101320002022C0E90721416281620A21C162FFF7E0
:101330008BBB00000038004040000020FEE77047F3
:101340000907090E002806DA00F00F0000F1E0207E
:1013500080F8141D704700F1E02080F800147047F9
:10136000704738B50B46009204460022802100F0F9
:1013700008F8002804D0606D40F02000606503206C
:1013800038BD2DE9F0411D4617460E460446DDF8EE
:10139000188035E0681C33D02DB1FFF76BF8A0EB57
:1013A0000800A8422CD32068416821F0E001416088
:1013B0006068B0F5827F0BD1A068B0F5004F02D015
:1013C000B0F5806F04D12068016821F04001016010
:1013D000A06AB0F5005F0AD1206801684DF6FF727F
:1013E000114001602068016841F400510160012052
:1013F00084F85100002084F850000320BDE8F081FB
:101400002068806836EA000004D00020B842C1D1CC
:101410000020F3E70120F9E701B582B000208DF844
:1014200004004FF480500090012301AA02A904484F
:10143000FFF7DCFC08B1FF200EBD9DF804000EBDD7
:10144000400000207047FFF71BB8000030B593B094
:1014500030216846FEF7F4FE14210CA8FEF7F0FEDA
:1014600018480024016841F080510160006800F0D4
:10147000805011901448016841F4404101600068B7
:10148000022500F4404011900120039010200095A7
:1014900006950490CDE907404FF4A8700990042008
:1014A0000A900B906846FFF741F90F20CDE90C0533
:1014B000E802CDE90E4002210CA81094FFF76EF867
:1014C00013B030BD40380240007000401048016841
:1014D00041F4700101600F48016841F001010160B1
:1014E0000C4A00210832116002680B4B1A4002605E
:1014F000031D0A4A1A60026822F48022026005482D
:101500000C300160024958068039086070470000BD
:1015100088ED00E000380240FFFFF6FE10300024A6
:10152000FEE702E008C8121F08C1002AFAD170477E
:101530007047002001E001C1121F002AFBD1704753
:10154000FEF7A6FFFFF7CEFDFFF780FFFFF790FE47
:10155000FFF7D8FE024A911F881FFFF757FDF9E7F2
:101560001000002070B50C46054616468C2125203B
:1015700000F02EF82946262000F02AF844F08001D9
:10158000272000F025F80120FEF798FE324621467C
:10159000BDE870404920AFF3008013460A4601467B
:1015A0001846FFF727BE70B50D4604460C212520CE
:1015B00000F00EF82146262000F00AF829466320A4
:1015C00000F006F8BDE8704081212720AFF30080CD
:1015D00013B50146012201A8FFF72EFE0A20FEF7EF
:1015E0006DFE1CBD000000000000000001020304AD
:1015F0000607080914160008000000202800000053
:10160000221500083C160008280000207004000085
:10161000321500080000000000000000000000007B
:1016200000000000000000000000000001000000B9
:0C16300010000000000000000024F40086
:040000050800019955
:00000001FF
